{
  "_format": "hh-sol-artifact-1",
  "contractName": "MintExample",
  "sourceName": "contracts/Greeter.sol",
  "abi": [
    {
      "inputs": [
        {
          "internalType": "string",
          "name": "name",
          "type": "string"
        },
        {
          "internalType": "string",
          "name": "symbol",
          "type": "string"
        }
      ],
      "stateMutability": "nonpayable",
      "type": "constructor"
    },
    {
      "anonymous": false,
      "inputs": [
        {
          "indexed": true,
          "internalType": "address",
          "name": "owner",
          "type": "address"
        },
        {
          "indexed": true,
          "internalType": "address",
          "name": "approved",
          "type": "address"
        },
        {
          "indexed": true,
          "internalType": "uint256",
          "name": "tokenId",
          "type": "uint256"
        }
      ],
      "name": "Approval",
      "type": "event"
    },
    {
      "anonymous": false,
      "inputs": [
        {
          "indexed": true,
          "internalType": "address",
          "name": "owner",
          "type": "address"
        },
        {
          "indexed": true,
          "internalType": "address",
          "name": "operator",
          "type": "address"
        },
        {
          "indexed": false,
          "internalType": "bool",
          "name": "approved",
          "type": "bool"
        }
      ],
      "name": "ApprovalForAll",
      "type": "event"
    },
    {
      "anonymous": false,
      "inputs": [
        {
          "indexed": true,
          "internalType": "address",
          "name": "previousOwner",
          "type": "address"
        },
        {
          "indexed": true,
          "internalType": "address",
          "name": "newOwner",
          "type": "address"
        }
      ],
      "name": "OwnershipTransferred",
      "type": "event"
    },
    {
      "anonymous": false,
      "inputs": [
        {
          "indexed": true,
          "internalType": "address",
          "name": "from",
          "type": "address"
        },
        {
          "indexed": true,
          "internalType": "address",
          "name": "to",
          "type": "address"
        },
        {
          "indexed": true,
          "internalType": "uint256",
          "name": "tokenId",
          "type": "uint256"
        }
      ],
      "name": "Transfer",
      "type": "event"
    },
    {
      "inputs": [
        {
          "internalType": "address",
          "name": "to",
          "type": "address"
        },
        {
          "internalType": "uint256",
          "name": "tokenId",
          "type": "uint256"
        }
      ],
      "name": "approve",
      "outputs": [],
      "stateMutability": "nonpayable",
      "type": "function"
    },
    {
      "inputs": [
        {
          "internalType": "address",
          "name": "owner",
          "type": "address"
        }
      ],
      "name": "balanceOf",
      "outputs": [
        {
          "internalType": "uint256",
          "name": "",
          "type": "uint256"
        }
      ],
      "stateMutability": "view",
      "type": "function"
    },
    {
      "inputs": [
        {
          "internalType": "uint256",
          "name": "tokenId",
          "type": "uint256"
        }
      ],
      "name": "getApproved",
      "outputs": [
        {
          "internalType": "address",
          "name": "",
          "type": "address"
        }
      ],
      "stateMutability": "view",
      "type": "function"
    },
    {
      "inputs": [
        {
          "internalType": "address",
          "name": "owner",
          "type": "address"
        },
        {
          "internalType": "address",
          "name": "operator",
          "type": "address"
        }
      ],
      "name": "isApprovedForAll",
      "outputs": [
        {
          "internalType": "bool",
          "name": "",
          "type": "bool"
        }
      ],
      "stateMutability": "view",
      "type": "function"
    },
    {
      "inputs": [
        {
          "internalType": "uint256",
          "name": "numberOfMints",
          "type": "uint256"
        }
      ],
      "name": "mint",
      "outputs": [],
      "stateMutability": "payable",
      "type": "function"
    },
    {
      "inputs": [],
      "name": "name",
      "outputs": [
        {
          "internalType": "string",
          "name": "",
          "type": "string"
        }
      ],
      "stateMutability": "view",
      "type": "function"
    },
    {
      "inputs": [],
      "name": "owner",
      "outputs": [
        {
          "internalType": "address",
          "name": "",
          "type": "address"
        }
      ],
      "stateMutability": "view",
      "type": "function"
    },
    {
      "inputs": [
        {
          "internalType": "uint256",
          "name": "tokenId",
          "type": "uint256"
        }
      ],
      "name": "ownerOf",
      "outputs": [
        {
          "internalType": "address",
          "name": "",
          "type": "address"
        }
      ],
      "stateMutability": "view",
      "type": "function"
    },
    {
      "inputs": [],
      "name": "renounceOwnership",
      "outputs": [],
      "stateMutability": "nonpayable",
      "type": "function"
    },
    {
      "inputs": [
        {
          "internalType": "address",
          "name": "from",
          "type": "address"
        },
        {
          "internalType": "address",
          "name": "to",
          "type": "address"
        },
        {
          "internalType": "uint256",
          "name": "tokenId",
          "type": "uint256"
        }
      ],
      "name": "safeTransferFrom",
      "outputs": [],
      "stateMutability": "nonpayable",
      "type": "function"
    },
    {
      "inputs": [
        {
          "internalType": "address",
          "name": "from",
          "type": "address"
        },
        {
          "internalType": "address",
          "name": "to",
          "type": "address"
        },
        {
          "internalType": "uint256",
          "name": "tokenId",
          "type": "uint256"
        },
        {
          "internalType": "bytes",
          "name": "_data",
          "type": "bytes"
        }
      ],
      "name": "safeTransferFrom",
      "outputs": [],
      "stateMutability": "nonpayable",
      "type": "function"
    },
    {
      "inputs": [
        {
          "internalType": "address",
          "name": "operator",
          "type": "address"
        },
        {
          "internalType": "bool",
          "name": "approved",
          "type": "bool"
        }
      ],
      "name": "setApprovalForAll",
      "outputs": [],
      "stateMutability": "nonpayable",
      "type": "function"
    },
    {
      "inputs": [
        {
          "internalType": "bytes4",
          "name": "interfaceId",
          "type": "bytes4"
        }
      ],
      "name": "supportsInterface",
      "outputs": [
        {
          "internalType": "bool",
          "name": "",
          "type": "bool"
        }
      ],
      "stateMutability": "view",
      "type": "function"
    },
    {
      "inputs": [],
      "name": "symbol",
      "outputs": [
        {
          "internalType": "string",
          "name": "",
          "type": "string"
        }
      ],
      "stateMutability": "view",
      "type": "function"
    },
    {
      "inputs": [
        {
          "internalType": "uint256",
          "name": "index",
          "type": "uint256"
        }
      ],
      "name": "tokenByIndex",
      "outputs": [
        {
          "internalType": "uint256",
          "name": "",
          "type": "uint256"
        }
      ],
      "stateMutability": "view",
      "type": "function"
    },
    {
      "inputs": [
        {
          "internalType": "address",
          "name": "owner",
          "type": "address"
        },
        {
          "internalType": "uint256",
          "name": "index",
          "type": "uint256"
        }
      ],
      "name": "tokenOfOwnerByIndex",
      "outputs": [
        {
          "internalType": "uint256",
          "name": "",
          "type": "uint256"
        }
      ],
      "stateMutability": "view",
      "type": "function"
    },
    {
      "inputs": [
        {
          "internalType": "uint256",
          "name": "tokenId",
          "type": "uint256"
        }
      ],
      "name": "tokenURI",
      "outputs": [
        {
          "internalType": "string",
          "name": "",
          "type": "string"
        }
      ],
      "stateMutability": "view",
      "type": "function"
    },
    {
      "inputs": [],
      "name": "totalSupply",
      "outputs": [
        {
          "internalType": "uint256",
          "name": "",
          "type": "uint256"
        }
      ],
      "stateMutability": "view",
      "type": "function"
    },
    {
      "inputs": [
        {
          "internalType": "address",
          "name": "from",
          "type": "address"
        },
        {
          "internalType": "address",
          "name": "to",
          "type": "address"
        },
        {
          "internalType": "uint256",
          "name": "tokenId",
          "type": "uint256"
        }
      ],
      "name": "transferFrom",
      "outputs": [],
      "stateMutability": "nonpayable",
      "type": "function"
    },
    {
      "inputs": [
        {
          "internalType": "address",
          "name": "newOwner",
          "type": "address"
        }
      ],
      "name": "transferOwnership",
      "outputs": [],
      "stateMutability": "nonpayable",
      "type": "function"
    }
  ],
  "bytecode": "0x60806040523480156200001157600080fd5b506040516200390938038062003909833981810160405281019062000037919062000285565b818181600090805190602001906200005192919062000163565b5080600190805190602001906200006a92919062000163565b5050506200008d620000816200009560201b60201c565b6200009d60201b60201c565b505062000468565b600033905090565b6000600a60009054906101000a900473ffffffffffffffffffffffffffffffffffffffff16905081600a60006101000a81548173ffffffffffffffffffffffffffffffffffffffff021916908373ffffffffffffffffffffffffffffffffffffffff1602179055508173ffffffffffffffffffffffffffffffffffffffff168173ffffffffffffffffffffffffffffffffffffffff167f8be0079c531659141344cd1fd0a4f28419497f9722a3daafe3b4186f6b6457e060405160405180910390a35050565b82805462000171906200038d565b90600052602060002090601f016020900481019282620001955760008555620001e1565b82601f10620001b057805160ff1916838001178555620001e1565b82800160010185558215620001e1579182015b82811115620001e0578251825591602001919060010190620001c3565b5b509050620001f09190620001f4565b5090565b5b808211156200020f576000816000905550600101620001f5565b5090565b60006200022a620002248462000321565b620002f8565b9050828152602081018484840111156200024357600080fd5b6200025084828562000357565b509392505050565b600082601f8301126200026a57600080fd5b81516200027c84826020860162000213565b91505092915050565b600080604083850312156200029957600080fd5b600083015167ffffffffffffffff811115620002b457600080fd5b620002c28582860162000258565b925050602083015167ffffffffffffffff811115620002e057600080fd5b620002ee8582860162000258565b9150509250929050565b60006200030462000317565b9050620003128282620003c3565b919050565b6000604051905090565b600067ffffffffffffffff8211156200033f576200033e62000428565b5b6200034a8262000457565b9050602081019050919050565b60005b83811015620003775780820151818401526020810190506200035a565b8381111562000387576000848401525b50505050565b60006002820490506001821680620003a657607f821691505b60208210811415620003bd57620003bc620003f9565b5b50919050565b620003ce8262000457565b810181811067ffffffffffffffff82111715620003f057620003ef62000428565b5b80604052505050565b7f4e487b7100000000000000000000000000000000000000000000000000000000600052602260045260246000fd5b7f4e487b7100000000000000000000000000000000000000000000000000000000600052604160045260246000fd5b6000601f19601f8301169050919050565b61349180620004786000396000f3fe60806040526004361061011f5760003560e01c806370a08231116100a0578063a22cb46511610064578063a22cb465146103ec578063b88d4fde14610415578063c87b56dd1461043e578063e985e9c51461047b578063f2fde38b146104b85761011f565b806370a0823114610326578063715018a6146103635780638da5cb5b1461037a57806395d89b41146103a5578063a0712d68146103d05761011f565b806323b872dd116100e757806323b872dd1461021d5780632f745c591461024657806342842e0e146102835780634f6ccce7146102ac5780636352211e146102e95761011f565b806301ffc9a71461012457806306fdde0314610161578063081812fc1461018c578063095ea7b3146101c957806318160ddd146101f2575b600080fd5b34801561013057600080fd5b5061014b60048036038101906101469190612471565b6104e1565b60405161015891906128bd565b60405180910390f35b34801561016d57600080fd5b5061017661055b565b60405161018391906128d8565b60405180910390f35b34801561019857600080fd5b506101b360048036038101906101ae91906124c3565b6105ed565b6040516101c09190612856565b60405180910390f35b3480156101d557600080fd5b506101f060048036038101906101eb9190612435565b610672565b005b3480156101fe57600080fd5b5061020761078a565b6040516102149190612b3a565b60405180910390f35b34801561022957600080fd5b50610244600480360381019061023f919061232f565b610797565b005b34801561025257600080fd5b5061026d60048036038101906102689190612435565b6107f7565b60405161027a9190612b3a565b60405180910390f35b34801561028f57600080fd5b506102aa60048036038101906102a5919061232f565b61089c565b005b3480156102b857600080fd5b506102d360048036038101906102ce91906124c3565b6108bc565b6040516102e09190612b3a565b60405180910390f35b3480156102f557600080fd5b50610310600480360381019061030b91906124c3565b610953565b60405161031d9190612856565b60405180910390f35b34801561033257600080fd5b5061034d600480360381019061034891906122ca565b610a05565b60405161035a9190612b3a565b60405180910390f35b34801561036f57600080fd5b50610378610abd565b005b34801561038657600080fd5b5061038f610b45565b60405161039c9190612856565b60405180910390f35b3480156103b157600080fd5b506103ba610b6f565b6040516103c791906128d8565b60405180910390f35b6103ea60048036038101906103e591906124c3565b610c01565b005b3480156103f857600080fd5b50610413600480360381019061040e91906123f9565b610c9a565b005b34801561042157600080fd5b5061043c6004803603810190610437919061237e565b610cb0565b005b34801561044a57600080fd5b50610465600480360381019061046091906124c3565b610d12565b60405161047291906128d8565b60405180910390f35b34801561048757600080fd5b506104a2600480360381019061049d91906122f3565b610db9565b6040516104af91906128bd565b60405180910390f35b3480156104c457600080fd5b506104df60048036038101906104da91906122ca565b610e4d565b005b60007f780e9d63000000000000000000000000000000000000000000000000000000007bffffffffffffffffffffffffffffffffffffffffffffffffffffffff1916827bffffffffffffffffffffffffffffffffffffffffffffffffffffffff19161480610554575061055382610f45565b5b9050919050565b60606000805461056a90612d5f565b80601f016020809104026020016040519081016040528092919081815260200182805461059690612d5f565b80156105e35780601f106105b8576101008083540402835291602001916105e3565b820191906000526020600020905b8154815290600101906020018083116105c657829003601f168201915b5050505050905090565b60006105f882611027565b610637576040517f08c379a000000000000000000000000000000000000000000000000000000000815260040161062e90612a7a565b60405180910390fd5b6004600083815260200190815260200160002060009054906101000a900473ffffffffffffffffffffffffffffffffffffffff169050919050565b600061067d82610953565b90508073ffffffffffffffffffffffffffffffffffffffff168373ffffffffffffffffffffffffffffffffffffffff1614156106ee576040517f08c379a00000000000000000000000000000000000000000000000000000000081526004016106e590612ada565b60405180910390fd5b8073ffffffffffffffffffffffffffffffffffffffff1661070d611093565b73ffffffffffffffffffffffffffffffffffffffff16148061073c575061073b81610736611093565b610db9565b5b61077b576040517f08c379a0000000000000000000000000000000000000000000000000000000008152600401610772906129fa565b60405180910390fd5b610785838361109b565b505050565b6000600880549050905090565b6107a86107a2611093565b82611154565b6107e7576040517f08c379a00000000000000000000000000000000000000000000000000000000081526004016107de90612afa565b60405180910390fd5b6107f2838383611232565b505050565b600061080283610a05565b8210610843576040517f08c379a000000000000000000000000000000000000000000000000000000000815260040161083a906128fa565b60405180910390fd5b600660008473ffffffffffffffffffffffffffffffffffffffff1673ffffffffffffffffffffffffffffffffffffffff168152602001908152602001600020600083815260200190815260200160002054905092915050565b6108b783838360405180602001604052806000815250610cb0565b505050565b60006108c661078a565b8210610907576040517f08c379a00000000000000000000000000000000000000000000000000000000081526004016108fe90612b1a565b60405180910390fd5b60088281548110610941577f4e487b7100000000000000000000000000000000000000000000000000000000600052603260045260246000fd5b90600052602060002001549050919050565b6000806002600084815260200190815260200160002060009054906101000a900473ffffffffffffffffffffffffffffffffffffffff169050600073ffffffffffffffffffffffffffffffffffffffff168173ffffffffffffffffffffffffffffffffffffffff1614156109fc576040517f08c379a00000000000000000000000000000000000000000000000000000000081526004016109f390612a3a565b60405180910390fd5b80915050919050565b60008073ffffffffffffffffffffffffffffffffffffffff168273ffffffffffffffffffffffffffffffffffffffff161415610a76576040517f08c379a0000000000000000000000000000000000000000000000000000000008152600401610a6d90612a1a565b60405180910390fd5b600360008373ffffffffffffffffffffffffffffffffffffffff1673ffffffffffffffffffffffffffffffffffffffff168152602001908152602001600020549050919050565b610ac5611093565b73ffffffffffffffffffffffffffffffffffffffff16610ae3610b45565b73ffffffffffffffffffffffffffffffffffffffff1614610b39576040517f08c379a0000000000000000000000000000000000000000000000000000000008152600401610b3090612a9a565b60405180910390fd5b610b436000611499565b565b6000600a60009054906101000a900473ffffffffffffffffffffffffffffffffffffffff16905090565b606060018054610b7e90612d5f565b80601f0160208091040260200160405190810160405280929190818152602001828054610baa90612d5f565b8015610bf75780601f10610bcc57610100808354040283529160200191610bf7565b820191906000526020600020905b815481529060010190602001808311610bda57829003601f168201915b5050505050905090565b6000610c0b61078a565b905060005b82811015610c9557610c2d338284610c289190612bee565b61155f565b600b60003373ffffffffffffffffffffffffffffffffffffffff1673ffffffffffffffffffffffffffffffffffffffff1681526020019081526020016000206000815480929190610c7d90612dc2565b91905055508080610c8d90612dc2565b915050610c10565b505050565b610cac610ca5611093565b838361157d565b5050565b610cc1610cbb611093565b83611154565b610d00576040517f08c379a0000000000000000000000000000000000000000000000000000000008152600401610cf790612afa565b60405180910390fd5b610d0c848484846116ea565b50505050565b6060610d1d82611027565b610d5c576040517f08c379a0000000000000000000000000000000000000000000000000000000008152600401610d5390612aba565b60405180910390fd5b6000610d66611746565b90506000815111610d865760405180602001604052806000815250610db1565b80610d908461175d565b604051602001610da1929190612832565b6040516020818303038152906040525b915050919050565b6000600560008473ffffffffffffffffffffffffffffffffffffffff1673ffffffffffffffffffffffffffffffffffffffff16815260200190815260200160002060008373ffffffffffffffffffffffffffffffffffffffff1673ffffffffffffffffffffffffffffffffffffffff16815260200190815260200160002060009054906101000a900460ff16905092915050565b610e55611093565b73ffffffffffffffffffffffffffffffffffffffff16610e73610b45565b73ffffffffffffffffffffffffffffffffffffffff1614610ec9576040517f08c379a0000000000000000000000000000000000000000000000000000000008152600401610ec090612a9a565b60405180910390fd5b600073ffffffffffffffffffffffffffffffffffffffff168173ffffffffffffffffffffffffffffffffffffffff161415610f39576040517f08c379a0000000000000000000000000000000000000000000000000000000008152600401610f309061293a565b60405180910390fd5b610f4281611499565b50565b60007f80ac58cd000000000000000000000000000000000000000000000000000000007bffffffffffffffffffffffffffffffffffffffffffffffffffffffff1916827bffffffffffffffffffffffffffffffffffffffffffffffffffffffff1916148061101057507f5b5e139f000000000000000000000000000000000000000000000000000000007bffffffffffffffffffffffffffffffffffffffffffffffffffffffff1916827bffffffffffffffffffffffffffffffffffffffffffffffffffffffff1916145b80611020575061101f8261190a565b5b9050919050565b60008073ffffffffffffffffffffffffffffffffffffffff166002600084815260200190815260200160002060009054906101000a900473ffffffffffffffffffffffffffffffffffffffff1673ffffffffffffffffffffffffffffffffffffffff1614159050919050565b600033905090565b816004600083815260200190815260200160002060006101000a81548173ffffffffffffffffffffffffffffffffffffffff021916908373ffffffffffffffffffffffffffffffffffffffff160217905550808273ffffffffffffffffffffffffffffffffffffffff1661110e83610953565b73ffffffffffffffffffffffffffffffffffffffff167f8c5be1e5ebec7d5bd14f71427d1e84f3dd0314c0f7b2291e5b200ac8c7c3b92560405160405180910390a45050565b600061115f82611027565b61119e576040517f08c379a0000000000000000000000000000000000000000000000000000000008152600401611195906129da565b60405180910390fd5b60006111a983610953565b90508073ffffffffffffffffffffffffffffffffffffffff168473ffffffffffffffffffffffffffffffffffffffff1614806111eb57506111ea8185610db9565b5b8061122957508373ffffffffffffffffffffffffffffffffffffffff16611211846105ed565b73ffffffffffffffffffffffffffffffffffffffff16145b91505092915050565b8273ffffffffffffffffffffffffffffffffffffffff1661125282610953565b73ffffffffffffffffffffffffffffffffffffffff16146112a8576040517f08c379a000000000000000000000000000000000000000000000000000000000815260040161129f9061295a565b60405180910390fd5b600073ffffffffffffffffffffffffffffffffffffffff168273ffffffffffffffffffffffffffffffffffffffff161415611318576040517f08c379a000000000000000000000000000000000000000000000000000000000815260040161130f9061299a565b60405180910390fd5b611323838383611974565b61132e60008261109b565b6001600360008573ffffffffffffffffffffffffffffffffffffffff1673ffffffffffffffffffffffffffffffffffffffff168152602001908152602001600020600082825461137e9190612c75565b925050819055506001600360008473ffffffffffffffffffffffffffffffffffffffff1673ffffffffffffffffffffffffffffffffffffffff16815260200190815260200160002060008282546113d59190612bee565b92505081905550816002600083815260200190815260200160002060006101000a81548173ffffffffffffffffffffffffffffffffffffffff021916908373ffffffffffffffffffffffffffffffffffffffff160217905550808273ffffffffffffffffffffffffffffffffffffffff168473ffffffffffffffffffffffffffffffffffffffff167fddf252ad1be2c89b69c2b068fc378daa952ba7f163c4a11628f55a4df523b3ef60405160405180910390a4611494838383611a88565b505050565b6000600a60009054906101000a900473ffffffffffffffffffffffffffffffffffffffff16905081600a60006101000a81548173ffffffffffffffffffffffffffffffffffffffff021916908373ffffffffffffffffffffffffffffffffffffffff1602179055508173ffffffffffffffffffffffffffffffffffffffff168173ffffffffffffffffffffffffffffffffffffffff167f8be0079c531659141344cd1fd0a4f28419497f9722a3daafe3b4186f6b6457e060405160405180910390a35050565b611579828260405180602001604052806000815250611a8d565b5050565b8173ffffffffffffffffffffffffffffffffffffffff168373ffffffffffffffffffffffffffffffffffffffff1614156115ec576040517f08c379a00000000000000000000000000000000000000000000000000000000081526004016115e3906129ba565b60405180910390fd5b80600560008573ffffffffffffffffffffffffffffffffffffffff1673ffffffffffffffffffffffffffffffffffffffff16815260200190815260200160002060008473ffffffffffffffffffffffffffffffffffffffff1673ffffffffffffffffffffffffffffffffffffffff16815260200190815260200160002060006101000a81548160ff0219169083151502179055508173ffffffffffffffffffffffffffffffffffffffff168373ffffffffffffffffffffffffffffffffffffffff167f17307eab39ab6107e8899845ad3d59bd9653f200f220920489ca2b5937696c31836040516116dd91906128bd565b60405180910390a3505050565b6116f5848484611232565b61170184848484611ae8565b611740576040517f08c379a00000000000000000000000000000000000000000000000000000000081526004016117379061291a565b60405180910390fd5b50505050565b606060405180602001604052806000815250905090565b606060008214156117a5576040518060400160405280600181526020017f30000000000000000000000000000000000000000000000000000000000000008152509050611905565b600082905060005b600082146117d75780806117c090612dc2565b915050600a826117d09190612c44565b91506117ad565b60008167ffffffffffffffff811115611819577f4e487b7100000000000000000000000000000000000000000000000000000000600052604160045260246000fd5b6040519080825280601f01601f19166020018201604052801561184b5781602001600182028036833780820191505090505b5090505b600085146118fe576001826118649190612c75565b9150600a856118739190612e0b565b603061187f9190612bee565b60f81b8183815181106118bb577f4e487b7100000000000000000000000000000000000000000000000000000000600052603260045260246000fd5b60200101907effffffffffffffffffffffffffffffffffffffffffffffffffffffffffffff1916908160001a905350600a856118f79190612c44565b945061184f565b8093505050505b919050565b60007f01ffc9a7000000000000000000000000000000000000000000000000000000007bffffffffffffffffffffffffffffffffffffffffffffffffffffffff1916827bffffffffffffffffffffffffffffffffffffffffffffffffffffffff1916149050919050565b61197f838383611c7f565b600073ffffffffffffffffffffffffffffffffffffffff168373ffffffffffffffffffffffffffffffffffffffff1614156119c2576119bd81611c84565b611a01565b8173ffffffffffffffffffffffffffffffffffffffff168373ffffffffffffffffffffffffffffffffffffffff1614611a00576119ff8382611ccd565b5b5b600073ffffffffffffffffffffffffffffffffffffffff168273ffffffffffffffffffffffffffffffffffffffff161415611a4457611a3f81611e3a565b611a83565b8273ffffffffffffffffffffffffffffffffffffffff168273ffffffffffffffffffffffffffffffffffffffff1614611a8257611a818282611f7d565b5b5b505050565b505050565b611a978383611ffc565b611aa46000848484611ae8565b611ae3576040517f08c379a0000000000000000000000000000000000000000000000000000000008152600401611ada9061291a565b60405180910390fd5b505050565b6000611b098473ffffffffffffffffffffffffffffffffffffffff166121d6565b15611c72578373ffffffffffffffffffffffffffffffffffffffff1663150b7a02611b32611093565b8786866040518563ffffffff1660e01b8152600401611b549493929190612871565b602060405180830381600087803b158015611b6e57600080fd5b505af1925050508015611b9f57506040513d601f19601f82011682018060405250810190611b9c919061249a565b60015b611c22573d8060008114611bcf576040519150601f19603f3d011682016040523d82523d6000602084013e611bd4565b606091505b50600081511415611c1a576040517f08c379a0000000000000000000000000000000000000000000000000000000008152600401611c119061291a565b60405180910390fd5b805181602001fd5b63150b7a0260e01b7bffffffffffffffffffffffffffffffffffffffffffffffffffffffff1916817bffffffffffffffffffffffffffffffffffffffffffffffffffffffff191614915050611c77565b600190505b949350505050565b505050565b6008805490506009600083815260200190815260200160002081905550600881908060018154018082558091505060019003906000526020600020016000909190919091505550565b60006001611cda84610a05565b611ce49190612c75565b9050600060076000848152602001908152602001600020549050818114611dc9576000600660008673ffffffffffffffffffffffffffffffffffffffff1673ffffffffffffffffffffffffffffffffffffffff168152602001908152602001600020600084815260200190815260200160002054905080600660008773ffffffffffffffffffffffffffffffffffffffff1673ffffffffffffffffffffffffffffffffffffffff168152602001908152602001600020600084815260200190815260200160002081905550816007600083815260200190815260200160002081905550505b6007600084815260200190815260200160002060009055600660008573ffffffffffffffffffffffffffffffffffffffff1673ffffffffffffffffffffffffffffffffffffffff16815260200190815260200160002060008381526020019081526020016000206000905550505050565b60006001600880549050611e4e9190612c75565b9050600060096000848152602001908152602001600020549050600060088381548110611ea4577f4e487b7100000000000000000000000000000000000000000000000000000000600052603260045260246000fd5b906000526020600020015490508060088381548110611eec577f4e487b7100000000000000000000000000000000000000000000000000000000600052603260045260246000fd5b906000526020600020018190555081600960008381526020019081526020016000208190555060096000858152602001908152602001600020600090556008805480611f61577f4e487b7100000000000000000000000000000000000000000000000000000000600052603160045260246000fd5b6001900381819060005260206000200160009055905550505050565b6000611f8883610a05565b905081600660008573ffffffffffffffffffffffffffffffffffffffff1673ffffffffffffffffffffffffffffffffffffffff168152602001908152602001600020600083815260200190815260200160002081905550806007600084815260200190815260200160002081905550505050565b600073ffffffffffffffffffffffffffffffffffffffff168273ffffffffffffffffffffffffffffffffffffffff16141561206c576040517f08c379a000000000000000000000000000000000000000000000000000000000815260040161206390612a5a565b60405180910390fd5b61207581611027565b156120b5576040517f08c379a00000000000000000000000000000000000000000000000000000000081526004016120ac9061297a565b60405180910390fd5b6120c160008383611974565b6001600360008473ffffffffffffffffffffffffffffffffffffffff1673ffffffffffffffffffffffffffffffffffffffff16815260200190815260200160002060008282546121119190612bee565b92505081905550816002600083815260200190815260200160002060006101000a81548173ffffffffffffffffffffffffffffffffffffffff021916908373ffffffffffffffffffffffffffffffffffffffff160217905550808273ffffffffffffffffffffffffffffffffffffffff16600073ffffffffffffffffffffffffffffffffffffffff167fddf252ad1be2c89b69c2b068fc378daa952ba7f163c4a11628f55a4df523b3ef60405160405180910390a46121d260008383611a88565b5050565b6000808273ffffffffffffffffffffffffffffffffffffffff163b119050919050565b600061220c61220784612b7a565b612b55565b90508281526020810184848401111561222457600080fd5b61222f848285612d1d565b509392505050565b600081359050612246816133ff565b92915050565b60008135905061225b81613416565b92915050565b6000813590506122708161342d565b92915050565b6000815190506122858161342d565b92915050565b600082601f83011261229c57600080fd5b81356122ac8482602086016121f9565b91505092915050565b6000813590506122c481613444565b92915050565b6000602082840312156122dc57600080fd5b60006122ea84828501612237565b91505092915050565b6000806040838503121561230657600080fd5b600061231485828601612237565b925050602061232585828601612237565b9150509250929050565b60008060006060848603121561234457600080fd5b600061235286828701612237565b935050602061236386828701612237565b9250506040612374868287016122b5565b9150509250925092565b6000806000806080858703121561239457600080fd5b60006123a287828801612237565b94505060206123b387828801612237565b93505060406123c4878288016122b5565b925050606085013567ffffffffffffffff8111156123e157600080fd5b6123ed8782880161228b565b91505092959194509250565b6000806040838503121561240c57600080fd5b600061241a85828601612237565b925050602061242b8582860161224c565b9150509250929050565b6000806040838503121561244857600080fd5b600061245685828601612237565b9250506020612467858286016122b5565b9150509250929050565b60006020828403121561248357600080fd5b600061249184828501612261565b91505092915050565b6000602082840312156124ac57600080fd5b60006124ba84828501612276565b91505092915050565b6000602082840312156124d557600080fd5b60006124e3848285016122b5565b91505092915050565b6124f581612ca9565b82525050565b61250481612cbb565b82525050565b600061251582612bab565b61251f8185612bc1565b935061252f818560208601612d2c565b61253881612ef8565b840191505092915050565b600061254e82612bb6565b6125588185612bd2565b9350612568818560208601612d2c565b61257181612ef8565b840191505092915050565b600061258782612bb6565b6125918185612be3565b93506125a1818560208601612d2c565b80840191505092915050565b60006125ba602b83612bd2565b91506125c582612f09565b604082019050919050565b60006125dd603283612bd2565b91506125e882612f58565b604082019050919050565b6000612600602683612bd2565b915061260b82612fa7565b604082019050919050565b6000612623602583612bd2565b915061262e82612ff6565b604082019050919050565b6000612646601c83612bd2565b915061265182613045565b602082019050919050565b6000612669602483612bd2565b91506126748261306e565b604082019050919050565b600061268c601983612bd2565b9150612697826130bd565b602082019050919050565b60006126af602c83612bd2565b91506126ba826130e6565b604082019050919050565b60006126d2603883612bd2565b91506126dd82613135565b604082019050919050565b60006126f5602a83612bd2565b915061270082613184565b604082019050919050565b6000612718602983612bd2565b9150612723826131d3565b604082019050919050565b600061273b602083612bd2565b915061274682613222565b602082019050919050565b600061275e602c83612bd2565b91506127698261324b565b604082019050919050565b6000612781602083612bd2565b915061278c8261329a565b602082019050919050565b60006127a4602f83612bd2565b91506127af826132c3565b604082019050919050565b60006127c7602183612bd2565b91506127d282613312565b604082019050919050565b60006127ea603183612bd2565b91506127f582613361565b604082019050919050565b600061280d602c83612bd2565b9150612818826133b0565b604082019050919050565b61282c81612d13565b82525050565b600061283e828561257c565b915061284a828461257c565b91508190509392505050565b600060208201905061286b60008301846124ec565b92915050565b600060808201905061288660008301876124ec565b61289360208301866124ec565b6128a06040830185612823565b81810360608301526128b2818461250a565b905095945050505050565b60006020820190506128d260008301846124fb565b92915050565b600060208201905081810360008301526128f28184612543565b905092915050565b60006020820190508181036000830152612913816125ad565b9050919050565b60006020820190508181036000830152612933816125d0565b9050919050565b60006020820190508181036000830152612953816125f3565b9050919050565b6000602082019050818103600083015261297381612616565b9050919050565b6000602082019050818103600083015261299381612639565b9050919050565b600060208201905081810360008301526129b38161265c565b9050919050565b600060208201905081810360008301526129d38161267f565b9050919050565b600060208201905081810360008301526129f3816126a2565b9050919050565b60006020820190508181036000830152612a13816126c5565b9050919050565b60006020820190508181036000830152612a33816126e8565b9050919050565b60006020820190508181036000830152612a538161270b565b9050919050565b60006020820190508181036000830152612a738161272e565b9050919050565b60006020820190508181036000830152612a9381612751565b9050919050565b60006020820190508181036000830152612ab381612774565b9050919050565b60006020820190508181036000830152612ad381612797565b9050919050565b60006020820190508181036000830152612af3816127ba565b9050919050565b60006020820190508181036000830152612b13816127dd565b9050919050565b60006020820190508181036000830152612b3381612800565b9050919050565b6000602082019050612b4f6000830184612823565b92915050565b6000612b5f612b70565b9050612b6b8282612d91565b919050565b6000604051905090565b600067ffffffffffffffff821115612b9557612b94612ec9565b5b612b9e82612ef8565b9050602081019050919050565b600081519050919050565b600081519050919050565b600082825260208201905092915050565b600082825260208201905092915050565b600081905092915050565b6000612bf982612d13565b9150612c0483612d13565b9250827fffffffffffffffffffffffffffffffffffffffffffffffffffffffffffffffff03821115612c3957612c38612e3c565b5b828201905092915050565b6000612c4f82612d13565b9150612c5a83612d13565b925082612c6a57612c69612e6b565b5b828204905092915050565b6000612c8082612d13565b9150612c8b83612d13565b925082821015612c9e57612c9d612e3c565b5b828203905092915050565b6000612cb482612cf3565b9050919050565b60008115159050919050565b60007fffffffff0000000000000000000000000000000000000000000000000000000082169050919050565b600073ffffffffffffffffffffffffffffffffffffffff82169050919050565b6000819050919050565b82818337600083830152505050565b60005b83811015612d4a578082015181840152602081019050612d2f565b83811115612d59576000848401525b50505050565b60006002820490506001821680612d7757607f821691505b60208210811415612d8b57612d8a612e9a565b5b50919050565b612d9a82612ef8565b810181811067ffffffffffffffff82111715612db957612db8612ec9565b5b80604052505050565b6000612dcd82612d13565b91507fffffffffffffffffffffffffffffffffffffffffffffffffffffffffffffffff821415612e0057612dff612e3c565b5b600182019050919050565b6000612e1682612d13565b9150612e2183612d13565b925082612e3157612e30612e6b565b5b828206905092915050565b7f4e487b7100000000000000000000000000000000000000000000000000000000600052601160045260246000fd5b7f4e487b7100000000000000000000000000000000000000000000000000000000600052601260045260246000fd5b7f4e487b7100000000000000000000000000000000000000000000000000000000600052602260045260246000fd5b7f4e487b7100000000000000000000000000000000000000000000000000000000600052604160045260246000fd5b6000601f19601f8301169050919050565b7f455243373231456e756d657261626c653a206f776e657220696e646578206f7560008201527f74206f6620626f756e6473000000000000000000000000000000000000000000602082015250565b7f4552433732313a207472616e7366657220746f206e6f6e20455243373231526560008201527f63656976657220696d706c656d656e7465720000000000000000000000000000602082015250565b7f4f776e61626c653a206e6577206f776e657220697320746865207a65726f206160008201527f6464726573730000000000000000000000000000000000000000000000000000602082015250565b7f4552433732313a207472616e736665722066726f6d20696e636f72726563742060008201527f6f776e6572000000000000000000000000000000000000000000000000000000602082015250565b7f4552433732313a20746f6b656e20616c7265616479206d696e74656400000000600082015250565b7f4552433732313a207472616e7366657220746f20746865207a65726f2061646460008201527f7265737300000000000000000000000000000000000000000000000000000000602082015250565b7f4552433732313a20617070726f766520746f2063616c6c657200000000000000600082015250565b7f4552433732313a206f70657261746f7220717565727920666f72206e6f6e657860008201527f697374656e7420746f6b656e0000000000000000000000000000000000000000602082015250565b7f4552433732313a20617070726f76652063616c6c6572206973206e6f74206f7760008201527f6e6572206e6f7220617070726f76656420666f7220616c6c0000000000000000602082015250565b7f4552433732313a2062616c616e636520717565727920666f7220746865207a6560008201527f726f206164647265737300000000000000000000000000000000000000000000602082015250565b7f4552433732313a206f776e657220717565727920666f72206e6f6e657869737460008201527f656e7420746f6b656e0000000000000000000000000000000000000000000000602082015250565b7f4552433732313a206d696e7420746f20746865207a65726f2061646472657373600082015250565b7f4552433732313a20617070726f76656420717565727920666f72206e6f6e657860008201527f697374656e7420746f6b656e0000000000000000000000000000000000000000602082015250565b7f4f776e61626c653a2063616c6c6572206973206e6f7420746865206f776e6572600082015250565b7f4552433732314d657461646174613a2055524920717565727920666f72206e6f60008201527f6e6578697374656e7420746f6b656e0000000000000000000000000000000000602082015250565b7f4552433732313a20617070726f76616c20746f2063757272656e74206f776e6560008201527f7200000000000000000000000000000000000000000000000000000000000000602082015250565b7f4552433732313a207472616e736665722063616c6c6572206973206e6f74206f60008201527f776e6572206e6f7220617070726f766564000000000000000000000000000000602082015250565b7f455243373231456e756d657261626c653a20676c6f62616c20696e646578206f60008201527f7574206f6620626f756e64730000000000000000000000000000000000000000602082015250565b61340881612ca9565b811461341357600080fd5b50565b61341f81612cbb565b811461342a57600080fd5b50565b61343681612cc7565b811461344157600080fd5b50565b61344d81612d13565b811461345857600080fd5b5056fea2646970667358221220ce209798e437aed6febbb8c7ded908d0ff6700d141e722974be9c92cb3313f7d64736f6c63430008040033",
  "linkReferences": {},
  "deployedLinkReferences": {}
}